{
  "contractName": "Certificates",
  "abi": [
    {
      "inputs": [],
      "payable": false,
      "stateMutability": "nonpayable",
      "type": "constructor"
    },
    {
      "anonymous": false,
      "inputs": [
        {
          "indexed": false,
          "internalType": "bytes32",
          "name": "_certificateId",
          "type": "bytes32"
        }
      ],
      "name": "certificateGenerated",
      "type": "event"
    },
    {
      "constant": true,
      "inputs": [
        {
          "internalType": "bytes32",
          "name": "",
          "type": "bytes32"
        }
      ],
      "name": "certificates",
      "outputs": [
        {
          "internalType": "string",
          "name": "hashAddress",
          "type": "string"
        }
      ],
      "payable": false,
      "stateMutability": "view",
      "type": "function"
    },
    {
      "constant": false,
      "inputs": [
        {
          "internalType": "address",
          "name": "schoolAddress",
          "type": "address"
        }
      ],
      "name": "addAddress",
      "outputs": [],
      "payable": false,
      "stateMutability": "nonpayable",
      "type": "function"
    },
    {
      "constant": false,
      "inputs": [
        {
          "internalType": "string",
          "name": "hashAddress",
          "type": "string"
        }
      ],
      "name": "generateCertificate",
      "outputs": [],
      "payable": false,
      "stateMutability": "nonpayable",
      "type": "function"
    },
    {
      "constant": true,
      "inputs": [
        {
          "internalType": "string",
          "name": "_id",
          "type": "string"
        }
      ],
      "name": "getCertificate",
      "outputs": [
        {
          "internalType": "string",
          "name": "",
          "type": "string"
        }
      ],
      "payable": false,
      "stateMutability": "view",
      "type": "function"
    },
    {
      "constant": true,
      "inputs": [
        {
          "internalType": "bytes32",
          "name": "_id",
          "type": "bytes32"
        }
      ],
      "name": "testGet",
      "outputs": [
        {
          "internalType": "string",
          "name": "",
          "type": "string"
        }
      ],
      "payable": false,
      "stateMutability": "view",
      "type": "function"
    }
  ],
  "bytecode": "0x60806040527375302f0f8a5f343946f5b1e9b4b60bd08404fe35600260006101000a81548173ffffffffffffffffffffffffffffffffffffffff021916908373ffffffffffffffffffffffffffffffffffffffff16021790555034801561006557600080fd5b5061091e806100756000396000f3fe608060405234801561001057600080fd5b50600436106100575760003560e01c806338eada1c1461005c57806344848d6c146100a0578063698ad16114610147578063742f068814610202578063ed0f2e75146102a9575b600080fd5b61009e6004803603602081101561007257600080fd5b81019080803573ffffffffffffffffffffffffffffffffffffffff1690602001909291905050506103dd565b005b6100cc600480360360208110156100b657600080fd5b8101908080359060200190929190505050610509565b6040518080602001828103825283818151815260200191508051906020019080838360005b8381101561010c5780820151818401526020810190506100f1565b50505050905090810190601f1680156101395780820380516001836020036101000a031916815260200191505b509250505060405180910390f35b6102006004803603602081101561015d57600080fd5b810190808035906020019064010000000081111561017a57600080fd5b82018360208201111561018c57600080fd5b803590602001918460018302840111640100000000831117156101ae57600080fd5b91908080601f016020809104026020016040519081016040528093929190818152602001838380828437600081840152601f19601f8201169050808301925050505050505091929192905050506105e1565b005b61022e6004803603602081101561021857600080fd5b810190808035906020019092919050505061066a565b6040518080602001828103825283818151815260200191508051906020019080838360005b8381101561026e578082015181840152602081019050610253565b50505050905090810190601f16801561029b5780820380516001836020036101000a031916815260200191505b509250505060405180910390f35b610362600480360360208110156102bf57600080fd5b81019080803590602001906401000000008111156102dc57600080fd5b8201836020820111156102ee57600080fd5b8035906020019184600183028401116401000000008311171561031057600080fd5b91908080601f016020809104026020016040519081016040528093929190818152602001838380828437600081840152601f19601f820116905080830192505050505050509192919290505050610720565b6040518080602001828103825283818151815260200191508051906020019080838360005b838110156103a2578082015181840152602081019050610387565b50505050905090810190601f1680156103cf5780820380516001836020036101000a031916815260200191505b509250505060405180910390f35b600260009054906101000a900473ffffffffffffffffffffffffffffffffffffffff1673ffffffffffffffffffffffffffffffffffffffff163373ffffffffffffffffffffffffffffffffffffffff16146104a0576040517f08c379a000000000000000000000000000000000000000000000000000000000815260040180806020018281038252601a8152602001807f596f7520646f6e27742068617665207065726d697373696f6e2100000000000081525060200191505060405180910390fd5b60018190806001815401808255809150509060018203906000526020600020016000909192909190916101000a81548173ffffffffffffffffffffffffffffffffffffffff021916908373ffffffffffffffffffffffffffffffffffffffff1602179055505050565b6060610513610831565b600080848152602001908152602001600020604051806020016040529081600082018054600181600116156101000203166002900480601f0160208091040260200160405190810160405280929190818152602001828054600181600116156101000203166002900480156105c95780601f1061059e576101008083540402835291602001916105c9565b820191906000526020600020905b8154815290600101906020018083116105ac57829003601f168201915b50505050508152505090508060000151915050919050565b60006105ec82610806565b9050604051806020016040528083815250600080838152602001908152602001600020600082015181600001908051906020019061062b929190610844565b509050507ff54e0f0055ffae318a21890316ed523f8a60aa59aaa279dfdcae7176155ec0db816040518082815260200191505060405180910390a15050565b6000602052806000526040600020600091509050806000018054600181600116156101000203166002900480601f0160208091040260200160405190810160405280929190818152602001828054600181600116156101000203166002900480156107165780601f106106eb57610100808354040283529160200191610716565b820191906000526020600020905b8154815290600101906020018083116106f957829003601f168201915b5050505050905081565b6060600061072d83610806565b9050610737610831565b600080838152602001908152602001600020604051806020016040529081600082018054600181600116156101000203166002900480601f0160208091040260200160405190810160405280929190818152602001828054600181600116156101000203166002900480156107ed5780601f106107c2576101008083540402835291602001916107ed565b820191906000526020600020905b8154815290600101906020018083116107d057829003601f168201915b5050505050815250509050806000015192505050919050565b60006060829050600081511415610823576000801b91505061082c565b60208301519150505b919050565b6040518060200160405280606081525090565b828054600181600116156101000203166002900490600052602060002090601f016020900481019282601f1061088557805160ff19168380011785556108b3565b828001600101855582156108b3579182015b828111156108b2578251825591602001919060010190610897565b5b5090506108c091906108c4565b5090565b6108e691905b808211156108e25760008160009055506001016108ca565b5090565b9056fea265627a7a72315820c77174d271bb8f5e99c73bd1ab02f86fef90711e6cb6c1ea1d27dc82047600ff64736f6c63430005100032",
  "source": "pragma solidity >=0.4.22 <0.9.0;\r\n\r\ncontract Certificates {\r\n\r\n    constructor() public {}\r\n    // an array of certificate\r\n    mapping(bytes32 => Certificate) public certificates;\r\n    // we define an array of school address, use to denied unauthorized transaction later on\r\n    address[] private validAddress;\r\n    // our address \r\n    address private mainAddress = 0x75302F0F8a5F343946f5b1e9B4b60bd08404fE35;\r\n    \r\n    struct Certificate {\r\n        string hashAddress;\r\n    }\r\n\r\n    event certificateGenerated(bytes32 _certificateId);\r\n    \r\n    function addAddress(address schoolAddress) public {\r\n        require(msg.sender == mainAddress, \"You don't have permission!\");\r\n        validAddress.push(schoolAddress);\r\n    }\r\n    \r\n    function checkAccess(address schoolAddress) view private returns (bool) {\r\n        if (schoolAddress == mainAddress) return true;\r\n        for (uint256 u = 0; u < validAddress.length; ++u) {\r\n            if (validAddress[u] == schoolAddress) return true;\r\n        }\r\n        return false;\r\n    }\r\n\r\n    function stringToBytes32(string memory source) private pure returns (bytes32 result) {\r\n        bytes memory tempEmptyStringTest = bytes(source);\r\n        if (tempEmptyStringTest.length == 0) {\r\n            return 0x0;\r\n        }\r\n        assembly {\r\n                result := mload(add(source, 32))\r\n        }\r\n    }\r\n\r\n    function generateCertificate(string memory hashAddress) public {\r\n        // require(checkAccess(msg.sender), \"You dont have apermission\");\r\n        bytes32 byte_id = stringToBytes32(hashAddress);\r\n        certificates[byte_id] = Certificate(hashAddress);\r\n        emit certificateGenerated(byte_id);\r\n    }\r\n\r\n    function getCertificate(string memory _id) public view returns (string memory) {\r\n        bytes32 byte_id = stringToBytes32(_id);\r\n        Certificate memory cert = certificates[byte_id];\r\n        return cert.hashAddress;\r\n    }\r\n\r\n    function testGet(bytes32 _id) public view returns (string memory) {\r\n        Certificate memory cert = certificates[_id];\r\n        return cert.hashAddress;\r\n    }\r\n\r\n}",
  "sourcePath": "C:\\Users\\OS\\AndroidStudioProjects\\ecert\\contracts\\Certificates.sol",
  "compiler": {
    "name": "solc",
    "version": "0.5.16+commit.9c3226ce.Emscripten.clang"
  },
  "schemaVersion": "3.4.3",
  "updatedAt": "2021-10-29T13:21:04.954Z",
  "devdoc": {
    "methods": {}
  },
  "userdoc": {
    "methods": {}
  }
}